{
  "contractName": "GuessMyNumber",
  "abi": [
    {
      "inputs": [],
      "stateMutability": "nonpayable",
      "type": "constructor"
    },
    {
      "anonymous": false,
      "inputs": [
        {
          "indexed": false,
          "internalType": "uint16",
          "name": "guess",
          "type": "uint16"
        },
        {
          "indexed": false,
          "internalType": "string",
          "name": "message",
          "type": "string"
        }
      ],
      "name": "guessEvent",
      "type": "event"
    },
    {
      "inputs": [],
      "name": "owner",
      "outputs": [
        {
          "internalType": "address",
          "name": "",
          "type": "address"
        }
      ],
      "stateMutability": "view",
      "type": "function"
    },
    {
      "inputs": [
        {
          "internalType": "uint16",
          "name": "guess_number",
          "type": "uint16"
        }
      ],
      "name": "guess",
      "outputs": [],
      "stateMutability": "nonpayable",
      "type": "function"
    },
    {
      "inputs": [
        {
          "internalType": "uint16",
          "name": "newSecret",
          "type": "uint16"
        }
      ],
      "name": "setSecretNumber",
      "outputs": [],
      "stateMutability": "nonpayable",
      "type": "function"
    }
  ],
  "bytecode": "0x608060405234801561001057600080fd5b50336000806101000a81548173ffffffffffffffffffffffffffffffffffffffff021916908373ffffffffffffffffffffffffffffffffffffffff16021790555061030a806100606000396000f3fe608060405234801561001057600080fd5b50600436106100415760003560e01c80638da5cb5b146100465780639414e4df14610064578063b62e576e14610080575b600080fd5b61004e61009c565b60405161005b91906101b3565b60405180910390f35b61007e6004803603810190610079919061020d565b6100c0565b005b61009a6004803603810190610095919061020d565b6100fa565b005b60008054906101000a900473ffffffffffffffffffffffffffffffffffffffff1681565b7fccf123806b3a8a5dab759932f3e8d8f3390cc478d111b764afcbc83a5a506d2e816040516100ef91906102a6565b60405180910390a150565b60008054906101000a900473ffffffffffffffffffffffffffffffffffffffff1673ffffffffffffffffffffffffffffffffffffffff163373ffffffffffffffffffffffffffffffffffffffff161461015257600080fd5b80600060146101000a81548161ffff021916908361ffff16021790555050565b600073ffffffffffffffffffffffffffffffffffffffff82169050919050565b600061019d82610172565b9050919050565b6101ad81610192565b82525050565b60006020820190506101c860008301846101a4565b92915050565b600080fd5b600061ffff82169050919050565b6101ea816101d3565b81146101f557600080fd5b50565b600081359050610207816101e1565b92915050565b600060208284031215610223576102226101ce565b5b6000610231848285016101f8565b91505092915050565b610243816101d3565b82525050565b600082825260208201905092915050565b7f546869732077617320796f757220677565737300000000000000000000000000600082015250565b6000610290601383610249565b915061029b8261025a565b602082019050919050565b60006040820190506102bb600083018461023a565b81810360208301526102cc81610283565b90509291505056fea26469706673582212202000825f9a2271b7a19a535716d1f812163bf79b66ebcf136a364bb43ad19cc164736f6c63430008090033",
  "immutableReferences": {},
  "source": "// SPDX-License-Identifier: MIT\npragma solidity ^0.8.9;\n\ncontract GuessMyNumber {\n    address public owner;\n    uint16 secretNumber;\n\n    event guessEvent(uint16 guess, string message);\n\n    constructor() {\n       owner = msg.sender;\n    }\n\n    function guess (uint16 guess_number) public {\n        //TODO implement this!\n        emit guessEvent(guess_number, \"This was your guess\");\n    }\n\n    function setSecretNumber (uint16 newSecret) public {\n      require(msg.sender == owner);\n      secretNumber = newSecret;\n    }\n\n}",
  "sourcePath": "/home/tonton/labs/kp-hello-solidity/react/contracts/GuessMyNumber.sol",
  "compiler": {
    "name": "solc",
    "version": "0.8.9+commit.e5eed63a.Emscripten.clang"
  },
  "schemaVersion": "3.4.3",
  "updatedAt": "2021-10-08T05:47:46.595Z",
  "networkType": "ethereum",
  "devdoc": {
    "kind": "dev",
    "methods": {},
    "version": 1
  },
  "userdoc": {
    "kind": "user",
    "methods": {},
    "version": 1
  }
}