{
  "contractName": "GuessMyNumber",
  "abi": [
    {
      "inputs": [],
      "stateMutability": "nonpayable",
      "type": "constructor"
    },
    {
      "anonymous": false,
      "inputs": [
        {
          "indexed": false,
          "internalType": "uint16",
          "name": "guess",
          "type": "uint16"
        },
        {
          "indexed": false,
          "internalType": "string",
          "name": "message",
          "type": "string"
        }
      ],
      "name": "guessEvent",
      "type": "event"
    },
    {
      "inputs": [],
      "name": "owner",
      "outputs": [
        {
          "internalType": "address",
          "name": "",
          "type": "address"
        }
      ],
      "stateMutability": "view",
      "type": "function"
    },
    {
      "inputs": [],
      "name": "secretNumber",
      "outputs": [
        {
          "internalType": "uint16",
          "name": "",
          "type": "uint16"
        }
      ],
      "stateMutability": "view",
      "type": "function"
    },
    {
      "inputs": [
        {
          "internalType": "uint16",
          "name": "guess_number",
          "type": "uint16"
        }
      ],
      "name": "guess",
      "outputs": [],
      "stateMutability": "nonpayable",
      "type": "function"
    },
    {
      "inputs": [
        {
          "internalType": "uint16",
          "name": "newSecret",
          "type": "uint16"
        }
      ],
      "name": "setSecretNumber",
      "outputs": [],
      "stateMutability": "nonpayable",
      "type": "function"
    }
  ],
  "bytecode": "0x608060405234801561001057600080fd5b50336000806101000a81548173ffffffffffffffffffffffffffffffffffffffff021916908373ffffffffffffffffffffffffffffffffffffffff160217905550610362806100606000396000f3fe608060405234801561001057600080fd5b506004361061004c5760003560e01c80638da5cb5b146100515780639414e4df1461006f578063b62e576e1461008b578063c36604ed146100a7575b600080fd5b6100596100c5565b60405161006691906101f0565b60405180910390f35b6100896004803603810190610084919061024a565b6100e9565b005b6100a560048036038101906100a0919061024a565b610123565b005b6100af61019b565b6040516100bc9190610286565b60405180910390f35b60008054906101000a900473ffffffffffffffffffffffffffffffffffffffff1681565b7fccf123806b3a8a5dab759932f3e8d8f3390cc478d111b764afcbc83a5a506d2e8160405161011891906102fe565b60405180910390a150565b60008054906101000a900473ffffffffffffffffffffffffffffffffffffffff1673ffffffffffffffffffffffffffffffffffffffff163373ffffffffffffffffffffffffffffffffffffffff161461017b57600080fd5b80600060146101000a81548161ffff021916908361ffff16021790555050565b600060149054906101000a900461ffff1681565b600073ffffffffffffffffffffffffffffffffffffffff82169050919050565b60006101da826101af565b9050919050565b6101ea816101cf565b82525050565b600060208201905061020560008301846101e1565b92915050565b600080fd5b600061ffff82169050919050565b61022781610210565b811461023257600080fd5b50565b6000813590506102448161021e565b92915050565b6000602082840312156102605761025f61020b565b5b600061026e84828501610235565b91505092915050565b61028081610210565b82525050565b600060208201905061029b6000830184610277565b92915050565b600082825260208201905092915050565b7f546869732077617320796f757220677565737300000000000000000000000000600082015250565b60006102e86013836102a1565b91506102f3826102b2565b602082019050919050565b60006040820190506103136000830184610277565b8181036020830152610324816102db565b90509291505056fea2646970667358221220df5b9e61afa18bb113f841d6ff080fe6f09ab2cbbb40f452b3ee9155b392440364736f6c63430008090033",
  "immutableReferences": {},
  "source": "// SPDX-License-Identifier: MIT\npragma solidity ^0.8.9;\n\ncontract GuessMyNumber {\n    address public owner;\n    uint16 public secretNumber;\n\n    event guessEvent(uint16 guess, string message);\n\n    constructor() {\n       owner = msg.sender;\n    }\n\n    function guess (uint16 guess_number) public {\n        //TODO implement this!\n        emit guessEvent(guess_number, \"This was your guess\");\n    }\n\n    function setSecretNumber (uint16 newSecret) public {\n      require(msg.sender == owner);\n      secretNumber = newSecret;\n    }\n\n}",
  "sourcePath": "/home/tonton/labs/kp-hello-solidity/react/contracts/GuessMyNumber.sol",
  "compiler": {
    "name": "solc",
    "version": "0.8.9+commit.e5eed63a.Emscripten.clang"
  },
  "schemaVersion": "3.4.3",
  "updatedAt": "2021-10-08T06:54:49.038Z",
  "devdoc": {
    "kind": "dev",
    "methods": {},
    "version": 1
  },
  "userdoc": {
    "kind": "user",
    "methods": {},
    "version": 1
  }
}