{
  "contractName": "GuessMyNumber",
  "abi": [
    {
      "inputs": [],
      "stateMutability": "nonpayable",
      "type": "constructor"
    },
    {
      "anonymous": false,
      "inputs": [
        {
          "indexed": false,
          "internalType": "uint16",
          "name": "guess",
          "type": "uint16"
        },
        {
          "indexed": false,
          "internalType": "string",
          "name": "message",
          "type": "string"
        }
      ],
      "name": "guessEvent",
      "type": "event"
    },
    {
      "anonymous": false,
      "inputs": [
        {
          "indexed": false,
          "internalType": "uint16",
          "name": "number",
          "type": "uint16"
        }
      ],
      "name": "secretEvent",
      "type": "event"
    },
    {
      "inputs": [],
      "name": "owner",
      "outputs": [
        {
          "internalType": "address",
          "name": "",
          "type": "address"
        }
      ],
      "stateMutability": "view",
      "type": "function",
      "constant": true
    },
    {
      "inputs": [
        {
          "internalType": "uint16",
          "name": "guess_number",
          "type": "uint16"
        }
      ],
      "name": "guess",
      "outputs": [],
      "stateMutability": "nonpayable",
      "type": "function"
    },
    {
      "inputs": [
        {
          "internalType": "uint16",
          "name": "newSecret",
          "type": "uint16"
        }
      ],
      "name": "setSecretNumber",
      "outputs": [],
      "stateMutability": "nonpayable",
      "type": "function"
    }
  ],
  "bytecode": "0x608060405234801561001057600080fd5b50336000806101000a81548173ffffffffffffffffffffffffffffffffffffffff021916908373ffffffffffffffffffffffffffffffffffffffff16021790555061035c806100606000396000f3fe608060405234801561001057600080fd5b50600436106100415760003560e01c80638da5cb5b146100465780639414e4df14610064578063b62e576e14610080575b600080fd5b61004e61009c565b60405161005b91906101ea565b60405180910390f35b61007e60048036038101906100799190610244565b6100c0565b005b61009a60048036038101906100959190610244565b6100fa565b005b60008054906101000a900473ffffffffffffffffffffffffffffffffffffffff1681565b7fccf123806b3a8a5dab759932f3e8d8f3390cc478d111b764afcbc83a5a506d2e816040516100ef91906102dd565b60405180910390a150565b60008054906101000a900473ffffffffffffffffffffffffffffffffffffffff1673ffffffffffffffffffffffffffffffffffffffff163373ffffffffffffffffffffffffffffffffffffffff161461015257600080fd5b80600060146101000a81548161ffff021916908361ffff1602179055507f059779f8412313776f75bea0e7ffdf8c577d1dd18aeb82581bc6ecc75c9d74428160405161019e919061030b565b60405180910390a150565b600073ffffffffffffffffffffffffffffffffffffffff82169050919050565b60006101d4826101a9565b9050919050565b6101e4816101c9565b82525050565b60006020820190506101ff60008301846101db565b92915050565b600080fd5b600061ffff82169050919050565b6102218161020a565b811461022c57600080fd5b50565b60008135905061023e81610218565b92915050565b60006020828403121561025a57610259610205565b5b60006102688482850161022f565b91505092915050565b61027a8161020a565b82525050565b600082825260208201905092915050565b7f546869732077617320796f757220677565737300000000000000000000000000600082015250565b60006102c7601383610280565b91506102d282610291565b602082019050919050565b60006040820190506102f26000830184610271565b8181036020830152610303816102ba565b905092915050565b60006020820190506103206000830184610271565b9291505056fea2646970667358221220ad4a3243958e5c65d06e9bfdc69b6ec61998dd30a822ac2400de3485675d917464736f6c63430008090033",
  "immutableReferences": {},
  "source": "// SPDX-License-Identifier: MIT\npragma solidity ^0.8.9;\n\ncontract GuessMyNumber {\n    address public owner;\n    uint16 secretNumber;\n\n    event guessEvent(uint16 guess, string message);\n    event secretEvent(uint16 number);\n\n\n    constructor() {\n       owner = msg.sender;\n    }\n\n    function guess (uint16 guess_number) public {\n        //TODO implement this!\n        emit guessEvent(guess_number, \"This was your guess\");\n    }\n\n    function setSecretNumber (uint16 newSecret) public {\n      require(msg.sender == owner);\n      secretNumber = newSecret;\n      emit secretEvent(newSecret);\n    }\n\n}",
  "sourcePath": "/home/tonton/labs/kp-hello-solidity/contracts/GuessMyNumber.sol",
  "compiler": {
    "name": "solc",
    "version": "0.8.9+commit.e5eed63a.Emscripten.clang"
  },
  "schemaVersion": "3.4.3",
  "updatedAt": "2021-10-08T10:26:45.341Z",
  "networkType": "ethereum",
  "devdoc": {
    "kind": "dev",
    "methods": {},
    "version": 1
  },
  "userdoc": {
    "kind": "user",
    "methods": {},
    "version": 1
  }
}