{
  "contractName": "GuessMyNumber2",
  "abi": [
    {
      "inputs": [],
      "stateMutability": "nonpayable",
      "type": "constructor"
    },
    {
      "anonymous": false,
      "inputs": [
        {
          "indexed": false,
          "internalType": "uint16",
          "name": "guess",
          "type": "uint16"
        },
        {
          "indexed": false,
          "internalType": "string",
          "name": "message",
          "type": "string"
        }
      ],
      "name": "guessEvent",
      "type": "event"
    },
    {
      "inputs": [],
      "name": "jackpot",
      "outputs": [
        {
          "internalType": "uint256",
          "name": "",
          "type": "uint256"
        }
      ],
      "stateMutability": "view",
      "type": "function",
      "constant": true
    },
    {
      "inputs": [],
      "name": "owner",
      "outputs": [
        {
          "internalType": "address",
          "name": "",
          "type": "address"
        }
      ],
      "stateMutability": "view",
      "type": "function",
      "constant": true
    },
    {
      "inputs": [
        {
          "internalType": "uint16",
          "name": "guess_number",
          "type": "uint16"
        }
      ],
      "name": "guess",
      "outputs": [],
      "stateMutability": "payable",
      "type": "function",
      "payable": true
    },
    {
      "inputs": [
        {
          "internalType": "uint16",
          "name": "newSecret",
          "type": "uint16"
        }
      ],
      "name": "setSecretNumber",
      "outputs": [],
      "stateMutability": "payable",
      "type": "function",
      "payable": true
    },
    {
      "inputs": [],
      "name": "withdrawJackpot",
      "outputs": [],
      "stateMutability": "payable",
      "type": "function",
      "payable": true
    }
  ],
  "bytecode": "0x608060405234801561001057600080fd5b50336000806101000a81548173ffffffffffffffffffffffffffffffffffffffff021916908373ffffffffffffffffffffffffffffffffffffffff160217905550610486806100606000396000f3fe60806040526004361061004a5760003560e01c80636b31ee011461004f5780638da5cb5b1461007a5780639414e4df146100a5578063b62e576e146100c1578063c0b3870a146100dd575b600080fd5b34801561005b57600080fd5b506100646100e7565b604051610071919061024e565b60405180910390f35b34801561008657600080fd5b5061008f6100ed565b60405161009c91906102aa565b60405180910390f35b6100bf60048036038101906100ba9190610304565b610111565b005b6100db60048036038101906100d69190610304565b61014b565b005b6100e56101ea565b005b60015481565b60008054906101000a900473ffffffffffffffffffffffffffffffffffffffff1681565b7fccf123806b3a8a5dab759932f3e8d8f3390cc478d111b764afcbc83a5a506d2e81604051610140919061039d565b60405180910390a150565b60008054906101000a900473ffffffffffffffffffffffffffffffffffffffff1673ffffffffffffffffffffffffffffffffffffffff163373ffffffffffffffffffffffffffffffffffffffff16146101a357600080fd5b60013410156101b157600080fd5b80600060146101000a81548161ffff021916908361ffff16021790555034600160008282546101e091906103fa565b9250508190555050565b3373ffffffffffffffffffffffffffffffffffffffff166108fc6001549081150290604051600060405180830381858888f19350505050158015610232573d6000803e3d6000fd5b50565b6000819050919050565b61024881610235565b82525050565b6000602082019050610263600083018461023f565b92915050565b600073ffffffffffffffffffffffffffffffffffffffff82169050919050565b600061029482610269565b9050919050565b6102a481610289565b82525050565b60006020820190506102bf600083018461029b565b92915050565b600080fd5b600061ffff82169050919050565b6102e1816102ca565b81146102ec57600080fd5b50565b6000813590506102fe816102d8565b92915050565b60006020828403121561031a576103196102c5565b5b6000610328848285016102ef565b91505092915050565b61033a816102ca565b82525050565b600082825260208201905092915050565b7f546869732077617320796f757220677565737300000000000000000000000000600082015250565b6000610387601383610340565b915061039282610351565b602082019050919050565b60006040820190506103b26000830184610331565b81810360208301526103c38161037a565b905092915050565b7f4e487b7100000000000000000000000000000000000000000000000000000000600052601160045260246000fd5b600061040582610235565b915061041083610235565b9250827fffffffffffffffffffffffffffffffffffffffffffffffffffffffffffffffff03821115610445576104446103cb565b5b82820190509291505056fea2646970667358221220be2a62efd663cd932ee31a2cad47e107172c72e6aa0738dcd5cd2fcb1c356add64736f6c63430008090033",
  "immutableReferences": {},
  "source": "// SPDX-License-Identifier: MIT\r\npragma solidity ^0.8.9;\r\n\r\ncontract GuessMyNumber2 {\r\n    address public owner;\r\n    uint16 secretNumber;\r\n\r\n    uint public jackpot;\r\n    event guessEvent(uint16 guess, string message);\r\n\r\n    constructor() {\r\n       owner = msg.sender;\r\n    }\r\n\r\n    function guess (uint16 guess_number) public payable{\r\n        //TODO: implement this\r\n        //How much should a guesser pay and what are the rules for wrong\r\n        emit guessEvent(guess_number, \"This was your guess\");\r\n    }\r\n\r\n    function setSecretNumber (uint16 newSecret) public payable {\r\n      require(msg.sender == owner);\r\n      require(msg.value >= 1);\r\n      secretNumber = newSecret;\r\n      jackpot += msg.value;\r\n    }\r\n\r\n    function withdrawJackpot () public payable {\r\n        //Right now anyone can withdraw the money at any time!\r\n        //TODO: implement something better\r\n        payable(msg.sender).transfer(jackpot);\r\n    }\r\n\r\n}",
  "sourcePath": "C:\\Users\\teoeng\\Desktop\\work\\kp-hello-solidity\\contracts\\GuessMyNumber2.sol",
  "compiler": {
    "name": "solc",
    "version": "0.8.9+commit.e5eed63a.Emscripten.clang"
  },
  "schemaVersion": "3.4.3",
  "updatedAt": "2021-10-08T10:26:45.351Z",
  "networkType": "ethereum",
  "devdoc": {
    "kind": "dev",
    "methods": {},
    "version": 1
  },
  "userdoc": {
    "kind": "user",
    "methods": {},
    "version": 1
  }
}